:020000040800F2
:10000000B0130020A5910008819100088391000899
:100010008591000887910008899100080000000080
:100020000000000000000000000000008B910008AC
:100030008D910008000000008F9100089191000848
:10004000CD910008D1910008D5910008D991000800
:10005000DD910008E1910008E5910008E9910008B0
:10006000ED910008F1910008F5910008F991000860
:10007000FD9100080192000805920008099200080D
:100080000D920008119200081592000819920008BC
:100090001D9200082192000825920008299200086C
:1000A0002D9200083192000835920008399200081C
:1000B0003D920008419200084592000849920008CC
:1000C0004D9200085192000855920008599200087C
:1000D0005D9200086192000865920008699200082C
:1000E0006D920008719200087592000879920008DC
:1000F0007D9200088192000885920008899200088C
:100100008D9200089192000895920008999200083B
:100110009D920008A1920008A5920008A9920008EB
:10012000AD920008B1920008B5920008B99200089B
:10013000BD920008C1920008C5920008C99200084B
:10014000CD920008D1920008D5920008D9920008FB
:10015000DD920008E1920008E5920008E9920008AB
:10016000ED920008F1920008F5920008F99200085B
:10017000FD920008019300080593000800000000AC
:10018000099300080D93000800F5E07002689142A1
:1001900003D343681A44914202D380680028F5D102
:1001A0007047DFF86C17086890B94FF480504860CA
:1001B0004FF480324FF0FF30C86008610420DFF850
:1001C00054378A604861C3F8BC01DFF84C07086007
:1001D0000120704701F1080313F0070F0EBF002341
:1001E000C3F1080303F007031944D21A8161C26006
:1001F00042F001034B60091D4FF0280C41F802C08A
:10020000DFF80C271369C36170472DE9FC4B0746E3
:1002100001F1080010F0070F0FBF8946C0F1080078
:1002200000F0070001EB000902F1080111F0070FCF
:1002300006D002F10800C0F1080000F007000244F7
:100240001546A5EB090009EB0306A0EB030B43F0F1
:100250000303C9F80430AE4228BF01F005FA28793B
:10026000C10758BF01F000FABBF1100F38BF01F011
:10027000FBF9B869854208D1F9688B44C7F80CB01E
:10028000BE614BF00100706051E1786985420AD18E
:10029000B9688B44C7F808B07E614BF0010070600C
:1002A00046F80BB043E1686800F00301012940F013
:1002B000AC80C008C0000190C0081F2839D8AC68C5
:1002C000D5F80C800090454508BF01F0CDF9A54256
:1002D00008BF01F0C9F968680099C008C000B0EB18
:1002E000C10F18BF01F0C0F9009907F1280000EB19
:1002F000C100844206D039698C42C0F08180E26836
:10030000AA427DD1A04506D10098396801238340D7
:100310009943396076E0804506D0396988456FD3C6
:10032000D8F80800A8426BD1C4F80C80C8F808407F
:1003300068E0EC68D5F81880AC420CD0A868396940
:10034000884223D3C268AA4204BFA168A9421DD132
:10035000C460A0601CE005F114010C6834B905F11B
:1003600010010C68A4B101E011460C6804F11402FC
:100370001068002802BF04F1100210680028F3D1B1
:100380003869814202D300220A6001E001F06CF971
:10039000B8F1000F36D0E96907F5987000EB8100DD
:1003A0000268954208D10460A4B9E869796801221D
:1003B00082409143796025E03869804508D3D8F8B8
:1003C0001010A94214BFC8F81440C8F8104001E04A
:1003D00001F04AF9B4B139698C4211D3C4F81880DC
:1003E000286928B1884226BF2061846101F03CF968
:1003F000686938B13969884202D36061846101E07B
:1004000001F032F901996D188B4469684908490077
:1004100069604BF0010070604FEADB0446F80BB0F6
:100420001F2C23D807F1280000EBC4084546BBF178
:10043000100F38BF01F018F9386820FA04F1CA0724
:1004400005D4012101FA04F404433C6007E0D8F824
:100450000800396988422CBF054601F005F9C8F843
:100460000860EE60B560C6F80C8060E05FEA1B20B3
:1004700008BF002123D0B0F5803F28BF1F211ED226
:10048000A0F58072120C02F008029040A0F5805195
:10049000090C01F004018840A0F580431B0CC2F157
:1004A0000E0203F00203521AD21A984002EBD03225
:1004B000D01D2BFA00F101F0010101EB4201F161C5
:1004C000002307F59872736102EB810033617A684B
:1004D00022FA01F3DC0707D4012303FA01F11143E7
:1004E00079600660B0611DE002681F291DBF4908E0
:1004F000C1F119010BFA01F1594600E002465068BA
:10050000C008C000584516D002F11003C80F03EB15
:100510008003490018680028F0D13869834204D369
:100520001E60B261F660B66001E001F09DF809F16D
:100530000800BDE8F68B396990688A4228BF884276
:10054000F3D3C6609660B060F2600020B061EEE761
:100550002DE9FE4F04468B46A5692E4690469946E6
:100560003146FFF711FE0268416802EB010AAAF169
:10057000270111F007000EBF0021C1F1080101F0B1
:1005800007010AEB0100A0F12F0706F110018F42CD
:1005900038BF374607F11802002101920091A8F1F7
:1005A000280259462046FFF715FE07F1080010F013
:1005B000070F18BF01F058F81B20786007F10801F9
:1005C00004F5E07090E80C5081E80C50C0F800B0E1
:1005D000C0F80480C0F80C9081600722019800994F
:1005E00000E0001D491C00F1080353454260F8D3A8
:1005F0000129D8BF01F038F8B74200F09580BF1B41
:10060000301D321DC15949084900D15147F0010040
:1006100070604FEAD70BF751BBF11F0F21D804EBE5
:10062000CB0000F12805A846102F38BF01F01CF8B8
:10063000206820FA0BF1CA0705D4012101FA0BF159
:100640000843206006E0A868216988422CBF8046E4
:1006500001F00AF8AE60C8F80C60C6F80880F560D2
:100660006FE0380A08BF002123D0B0F5803F28BFD3
:100670001F211ED2A0F58072120C02F008029040D9
:10068000A0F58051090C01F004018840A0F58043D9
:100690001B0CC2F10E0203F00203521AD21A984048
:1006A00002EBD032D01D27FA00F101F0010101EB7D
:1006B000420104EB8102002302F59870F16173613D
:1006C0003361626822FA01F3DB0707D4012303FADE
:1006D00001F1114361600660B0611DE002681F29ED
:1006E0001DBF4908C1F1190107FA01F1394600E0BF
:1006F00002465068C008C000B84216D002F110038C
:10070000C80F03EB8003490018680028F0D1206966
:10071000834204D31E60B261F660B56011E003B09D
:10072000BDE8F04F00F0A0BF0BE0216990688A425D
:1007300028BF8842F3D3C6609560B060F2600020A5
:10074000B06103B0BDE8F08F2DE9F041704F054670
:100750003868884608B9FFF724FDB96801EB08003E
:100760002F30491E20EA010188457DD205F5D87653
:10077000B06828B1326889188A4275D2884273D32A
:1007800000F092FF01001CBF0C6811F1010F6BD04B
:100790003068201805F5D87230605368984238BF29
:1007A00018467060A86960BB286908B1814200D210
:1007B0002961316174610020F0614FF0FF303A68C7
:1007C0006A62286205F128020020D260926002F17C
:1007D000080757611761801C10322028F5D34D4857
:1007E000854208BFA4F1280228D055F8040CC0089F
:1007F00005EBC002A2F108000A19121A283A0146B4
:100800001CE005F5E070024600E092687AB31368D8
:1008100057681F44B942F8D1137B1F0727D4AB692F
:100820001768BB4223D3D2F804C06744BB421ED230
:10083000A444C2F804C0E868A96922182846FFF752
:10084000C9FC1FE08068C0B103689342FAD1027B03
:10085000130712D4026801604368E41844604346F9
:100860002846BDE8F041D0E40020BDE8F0812A69C7
:10087000914238BF29610A19E5E70023224628463C
:10088000FFF766FEE8688045EED2A0EB0800A96994
:10089000E86001EB0802AA6140F00100506048F0F6
:1008A0000300486001F10800BDE8F08130B4184B46
:1008B0001A6882B94FF480525A604FF480344FF076
:1008C000FF32DA601A610422124D9C605A61C5F849
:1008D000BC21114A1A6011F1400F17D28269AAB1E6
:1008E000C368283199420BD200F5E0710C68A2422E
:1008F00003D34D682C44A24202D389680029F5D164
:10090000C16999423CBF4FF0FF32C26100F0A8BEFE
:100910008C030020B00000206859883C2DE9F84F76
:1009200000258946090AC9F1000B08BF002323D01E
:10093000B1F5803F28BF1F231ED2A1F58072120C93
:1009400002F008029140A1F580531B0C03F0040350
:100950009940A1F58044240CC2F10E0204F0020477
:10096000D21A121BA14002EBD132D11D29FA01F398
:1009700003F0010303EB4203074607F5987858F8A4
:10098000230030B31F2B0FBF4C465C08C4F1190481
:1009900009FA04F4AC46594600E064004268D20803
:1009A000D200A2EB09028A4203D21100054600F0F0
:1009B0006981426910304FEAD47B50F82B00002A3D
:1009C0001CBF824294460028E7D18B466046B0BBEC
:1009D000BDBB012202FA03F35B005842796803436E
:1009E0000B4000F04E81584203405B1E180B00F094
:1009F0001000C340590901F00801CB409A0802F0E9
:100A00000402D3405C0804F002040818E340101804
:100A1000C3F3400620183044F3401B1858F8230055
:100A20000DE008464168C908C900A1EB0901594514
:100A30003CBF8B46054601690029F2D14069002878
:100A4000F0D1002D00F01D81B868A0EB09008345AE
:100A500080F0178139698D42C0F011816868C00843
:100A6000C00009EB0B01884218BF00F0FDFD05EB4B
:100A70000906B54280F00381EC68D5F818A0AC42B5
:100A80000CD0A8683969884223D3C268AA4204BF3F
:100A9000A168A9421DD1C460A0601CE005F1140149
:100AA0000C6834B905F110010C68A4B101E01146DD
:100AB0000C6804F114021068002802BF04F110024F
:100AC00010680028F3D13869814202D300220A60FD
:100AD00001E000F0C9FDBAF1000F36D0E86908EB7B
:100AE000800001688D4209D10460200014D1E869BA
:100AF0007968012282409143796026E03869824515
:100B000008D3DAF81010A94214BFCAF81440CAF882
:100B1000104001E000F0A8FDBCB13869844212D356
:100B2000C4F818A0286930B13969884226BF20610D
:100B3000846100F099FD686938B13969884202D34F
:100B40006061846101E000F08FFDBBF1100F0CD2F9
:100B5000D94449F00300291D6860281D51F8092077
:100B600042F0010240F8092088E049F00300686083
:100B70004BF0010070604FEADB0046F80BB01F2815
:100B80001DD807EBC00101F12804396821FA00F2F1
:100B9000D307A34605D4012202FA00F008433860C7
:100BA00006E0A068396988422CBF834600F05CFDEE
:100BB000A660CBF80C60C6F808B0F4605EE05FEAAF
:100BC0001B2008BF002123D0B0F5803F28BF1F2184
:100BD0001ED2A0F58072120C02F008029040A0F51F
:100BE0008051090C01F004018840A0F580431B0CE2
:100BF000C2F10E0203F00203521AD21A984002EB1D
:100C0000D032D01D2BFA00F101F0010101EB4201BD
:100C1000F16100227261326108EB81007A6822FA88
:100C200001F4E30707D4012404FA01F111437960C8
:100C30000660B0611DE002681F291DBF4908C1F1AF
:100C400019010BFA01F1594600E002465068C0084C
:100C5000C000584518D002F11003C80F03EB800301
:100C6000490018680028F0D13869834204D31E6017
:100C7000B261F660B66001E000F0F6FC14E100F04D
:100C8000F3FC0EE18B46A2E6396990688A4228BFE0
:100C90008842F1D3C6609660B060F2600020B06117
:100CA000ECE72DE9F84F0646884671684842014056
:100CB000491E080B00F01000C1404A0902F008026A
:100CC000D1408B0803F00403D9404D0805F002051C
:100CD0001018E9401818C1F34004281806F5987A4E
:100CE0002044E14009185AF821104868C008C000A3
:100CF0000D46A0EB080909E001464868C008C0009D
:100D0000A0EB080048453CBF81460D460869002815
:100D1000F2D149690029F0D130698542C0F0BF8025
:100D20006968C90808EB090BC900594518BF00F0EC
:100D30009BFC05EB08008542009080F0B080EF68D6
:100D4000AC69AF420CD0A8683169884223D3C2682D
:100D5000AA4204BFB968A9421DD1C760B8601CE0AF
:100D600005F114010F6837B905F110010F68A7B13B
:100D700001E011460F6807F114021068002802BF55
:100D800007F1100210680028F3D13069814202D3C4
:100D900000220A6001E000F067FC002C31D0E86915
:100DA0000AEB800001688D4208D107608FB9E869BD
:100DB0007168012282409143716022E0306984426F
:100DC00005D32169A94214BF6761276101E000F0E2
:100DD0004BFCB7B13069874211D3BC61286930B18F
:100DE0003169884226BF3861876100F03DFC68693F
:100DF00038B13169884202D37861876101E000F03F
:100E000033FCB9F1100F0BD24BF00300291D6860C1
:100E1000281D51F80B2042F0010240F80B203DE064
:100E200048F003012A1D696049F0010042F80800FA
:100E3000009941F80990D6F808804FEAD80BBBF129
:100E4000200F28BF00F010FCB8F1000F22D006EBF5
:100E5000CB00776900F12804A246B8F1100F38BF23
:100E600000F002FC306820FA0BF1CA0705D401211A
:100E700001FA0BF10843306006E0A068316988424E
:100E80002CBF824600F0F0FBA760CAF80C70C7F8D0
:100E900008A0FC60C6F808900098706104E000F0BB
:100EA000E3FB0020BDE8F28F05F10800BDE8F28FFA
:100EB0002DE9FE4F0546AFF30080F52DDFF89C6766
:100EC00080F004810B2D31BF10250B35ED08ED00AE
:100ED0003068EC08E04010F0030F46D0C04300F04B
:100EE0000100041906F1280000EBC408E700D8F857
:100EF00008506868C008C000B84218BF00F0B4FBD2
:100F0000D5F80890454508BF00F0AEFB4D4508BF39
:100F100000F0AAFB6868C008C000B84218BF00F023
:100F2000A3FBC84507D13068012101FA04F420EA87
:100F3000040434600DE03069814508D3D9F80C1001
:100F4000A94204D1C8F80890C9F80C8001E000F06B
:100F50008BFB47F00300291D6860281DCA5942F029
:100F60000102C25105F10804F8E0B168A94280F01D
:100F7000BE80002800F0A1804FF0010808FA04F1BB
:100F8000490000FA04F4484201430C406042044026
:100F9000641E200B00F01000C440610901F008013C
:100FA000CC40A20802F00402D440630803F002031C
:100FB0000818DC401018C4F3400718183818FC4013
:100FC000241806F1280000EBC40AE700DAF80890BC
:100FD000D9F80400C008C000B84218BF00F044FBB4
:100FE000D9F808B0D14508BF00F03EFBD94508BF8D
:100FF00000F03AFBD9F80400C008C000B84218BF9E
:1010000000F032FBDA4506D1306808FA04F420EA31
:10101000040434600DE031698B4508D3DBF80C0023
:10102000484504D1CAF808B0CBF80CA001E000F0A4
:101030001BFB7F1B45F0030009F10402C9F8040003
:1010400047F00101515109EB05020192D751B468F3
:101050004FEAD40ABAF1200F28BF00F005FB34B3E1
:10106000CDF800A006F12800756900EBCA0AD34646
:10107000102C38BF00F0F8FA3168009821FA00F21D
:10108000D30704D408FA00F00843306007E0DAF828
:101090000800316988422CBF834600F0E5FACAF89F
:1010A0000850CBF80C50C5F808B0C5F80CA0B760D4
:1010B00009F108040198706150E07068C0B32946D6
:1010C0003046FFF7EEFD040011D047E015F1400F68
:1010D00028BF4FF0FF350AD20B35ED087068ED00E0
:1010E00028B129463046FFF719FC040036D1B06814
:1010F000A8421DD3411B726910290AD3501970618F
:10110000B16041F001034360415045F00305556073
:101110000BE00021B1607161131D40F003015160CB
:10112000111D1C5844F001040C5002F1080415E094
:10113000F06885420DD2401BB169F0604A19B26176
:1011400040F00100506045F003054D6001F10804D6
:1011500004E029463046FFF7F7FA0446AFF3008073
:101160002046FFF7EEBA002800D170472DE9F0477E
:10117000A0F10805AFF30080DFF8E06431698D422B
:10118000C0F05982686800F00302012A00F053821F
:10119000C2084FEAC209C20705EB090839D42C6816
:1011A00010F0030F00F04982604205448D42A144D3
:1011B000C0F041827069854200F0C680E408202CAE
:1011C0005ED2D5F80CA0AF68554508BF00F04CFAC8
:1011D000BD4208BF00F048FA6868C008C000B0EB24
:1011E000C40F18BF00F040FA06F1280000EBC4005D
:1011F000874205D031698F423FD3FA68AA423CD179
:10120000BA452CD13068012101FA04F420EA040423
:101210003460454580F00F82D8F80440E00740F183
:101220000A82A10700F16881B069804540F09F8083
:10123000F168B5618944C6F80C9049F00100686016
:1012400071698D4202D100207061B060F06948453B
:1012500080F0F38100213046FFF728FBEDE1824565
:1012600006D03069824508D3DAF80810A94204D1C3
:10127000C7F80CA0CAF80870CBE700F0F5F9C8E78A
:10128000EC68AF69AC420BD0A868884222D3C16831
:10129000A94204BFA268AA421CD1C460A0601BE09E
:1012A00005F11402146834B905F1100214689CB1F8
:1012B00001E01A46146804F114031868002802BFFC
:1012C00004F1100318680028F3D18A4202D30021E8
:1012D000116001E000F0C8F9002F9AD0E96906F525
:1012E000987000EB81000268954209D104602000EB
:1012F00011D1E8697168012282409143716088E7E9
:101300003069874205D33969A94214BF7C613C61C9
:1013100001E000F0A9F9002C3FF47BAF31698C4269
:10132000ABD3A761286928B1884226BF20618461B8
:1013300000F09AF9686900283FF46BAF3169884280
:101340009BD36061846164E798F8040000F00300B7
:1013500003287FF45EAFC6F8089049F00101D8F881
:10136000040040084000C8F8040069600AE07069A1
:1013700080450AD1B16875618944C6F8089049F082
:101380000100686045F8099057E1E408E400A144D1
:10139000E408202C3AD2D8F80CA0D8F80870D04530
:1013A00008BF00F061F9B84508BF00F05DF9D8F852
:1013B0000400C008C000B0EBC40F18BF00F054F91F
:1013C00006F1280000EBC400874207D031698F4244
:1013D000C0F08580FA68424540F08180BA4507D167
:1013E0003068012101FA04F420EA0404346078E052
:1013F000824506D03069824571D3DAF8081041453C
:101400006DD1C7F80CA0CAF808706AE0D8F80C4093
:10141000D8F8187044450DD0D8F8080031698842D2
:1014200023D3C268424504BFA16841451DD1C460B1
:10143000A0601CE008F114010C6834B908F1100137
:101440000C68A4B101E011460C6804F114021068A4
:10145000002802BF04F1100210680028F3D130699F
:10146000814202D300220A6001E000F0FDF8002F63
:1014700037D0D8F81C1006F5987000EB8100026890
:1014800090450AD10460200012D1D8F81C00716880
:10149000012282409143716023E03069874205D385
:1014A0003969414514BF7C613C6101E000F0DCF822
:1014B000BCB131698C4212D3A761D8F8100028B1B1
:1014C000884226BF2061846100F0CEF8D8F814006D
:1014D00038B13169884202D36061846101E000F073
:1014E000C3F849F00100686045F8099071698D42C0
:1014F0000BD1C6F80890A0E064086400C8F8044066
:1015000049F00100686045F809904FEAD907202F9B
:1015100022D206F1280000EBC704A046B9F1100F53
:1015200038BF00F0A1F8306820FA07F1CA0705D4E7
:10153000012101FA07F70743376006E0A068316927
:1015400088422CBF804600F08FF8A560C8F80C5088
:10155000C5F80880EC6070E05FEA192008BF002140
:1015600023D0B0F5803F28BF1F211ED2A0F5807286
:10157000120C02F008029040A0F58051090C01F015
:1015800004018840A0F580431B0CC2F10E0203F059
:101590000203521AD21A984002EBD032D01D29FA17
:1015A00000F101F0010101EB420106F59872002300
:1015B00002EB8100E9616B612B61726822FA01F331
:1015C000DC0707D4012303FA01F1114371600560C0
:1015D000A8611DE002681F291DBF4908C1F119015A
:1015E00009FA01F1494600E002465068C008C0000F
:1015F000484526D002F11003C80F03EB80034900D1
:1016000018680028F0D13069834204D31D60AA61B4
:10161000ED60AD6001E000F027F8306A401E3062F6
:101620000BD1D6F8C80100E080680028FCD14FF04B
:10163000FF30306201E000F017F8AFF30080BDE842
:10164000F087316990688A4228BF8842E3D3C56039
:101650009560A860EA600020A861DEE7B000002085
:1016600030BC002070470000012000F033B830B4D7
:10167000002513E050F8042BD30744BFA9F1010360
:101680009A18091F042942F8045BFAD213468C0702
:1016900044BF15809B1CC90748BF1D7050F8041B30
:1016A0000029E7D130BC70470749086808B100201D
:1016B00070470648C008C00008600549C908C9004D
:1016C000091A0160704700BFA4030020B71300206F
:1016D000B0A3002080B5AFF30080024A11001820AB
:1016E000ABBEFBE726000200FFFFFFFFFFFFFFFF8F
:1016F0008FFFFFFFFFFFFFFFF1FFFFFFFFFFFFFF78
:10170000FFFFFFFFFFFFFFFFFF8FFFFFFFFFFFFF59
:10171000FFF1FFFFFFFFFFFFFFFFFFFFFFFFFFFFE7
:10172000FFFF8FFFFFFFFFFFFFFFF1FFFFFFFFFF47
:10173000FFFFFFFFFFFFFFFFFFFFFF8FFFFFFFFF29
:10174000FFFFFFF1FE01FFFFFFFFFFFFFFFFFFFFB6
:10175000FFFFFFFF8FFFFFFFFFFFFFFFF1F8007F9D
:10176000FFFFFFFFFFFFF7FF3FFFFFFFFF8FFFFFC1
:10177000FFFFFFFFFFF1F0003FFFFFFFFFFFFFE173
:10178000FE1FFFFFFFFF8FFFFFFFFFFFFFFFF1F0D7
:10179000001FFFFFFFFFFFFFE3FF1FFFFFFFFF8FA4
:1017A000FFFFFFFFFFFFFFF1E0001FFFFFFFFFFF55
:1017B000FFE3FF9FFFFFFFFF8FFFFFFFFFFFFFFF25
:1017C000F1E1E30000000001FFFFE7FF8FFFFFFFF3
:1017D000FF8FFFFFFFFFFFFFFFF1C3F30FFFFFFFCF
:1017E000FCFFFFE3FF8FFFFFFFFF8FFFFFFFFFFF08
:1017F000FFFFF1C33B0FFFFFFFFEFFFFE3FF1FFFF4
:10180000FFFFFF8FFFFFFFFFFFFFFFF1C30F0FFF82
:10181000FFFFFEFFFFE1FE1FFFFFFFFF8FFFFFFF48
:10182000FFFFFFFFF1C30F0FFFFFFFFEFFFFF0FC05
:101830001FFFFFFFFF8FFFE3FFFFFFFFFFF1C387E6
:101840000FFFFFFFFEFFFFF0003FFFFFFFFF8FFFD7
:10185000E07FFFFFFFFFF1C1030FFFFFFFFEFFFF70
:10186000F8007FFFFFFFFF8FFFE00FFFFFFFFFF19B
:10187000E0001FFFFFFFFEFFFFFE01FFFFFFFFFF76
:101880008FFFFC03FFFFFFFFF1E0001FFFFFFFFEE4
:10189000FFFFFFFFFFFFFFFFFF8FFFFF807FFFFFC7
:1018A000FFF1F0003FFFFFFF7EFFFFFBFFFFFFFFA9
:1018B000FFFF8FFFFFF01FFFFFFFF1F8007FFFFF2B
:1018C000FC3EFFFFE0FFFFFFFFFFFF8FFFFF001F5A
:1018D000FFFFFFF1FE00FFFFFFF03EFFFFC67FFFAF
:1018E000FFFFFFFF8FFFF8078FFFFFFFF1FE87FF6E
:1018F000FFFFE0CEFFFFCE7FFFFFFFFFFF8FFFE088
:101900001F8FC007FFF1FEFFFFFFFF8186FFFFCEA5
:101910007FFFFFFFFFFF8FFFE0FFCF8007FFF1FE9C
:10192000FFFFFFFF0206FFFFC67FFFFFFFFFFF8FE6
:10193000FFE3FFEF0007FFF1FEFFFFFFFE0C02FFDA
:10194000FFE0FFFFFFFFFFFF8FFFFFFFFF1FFFFF16
:10195000F1FEFFFFFFFE1802FFFFFBFFFFFFFFFF8F
:10196000FF8FFFFFFFFF1FFFFFF1FEFFFFFFFE20C6
:1019700000FFFFFFFFFFFFFFFFFF8FFFFE01FF1FC5
:10198000FFFFF1FEFFFFFFFEC002FFFFFF03FFFFAF
:10199000FFFFFF8FFFF001FF9FFFFFF1FEFFFFFF43
:1019A000FF0002FFFFF8007FFFFFFFFF8FFFE00156
:1019B000E0800FFFF1FEFFFFFFFF0002FFFFF000DE
:1019C0003FFFE7FFFF8FFFE003E00007FFF1FEFFAF
:1019D000FFFFFF8006FFFFE0CC1FFFE0FFFF8FFF50
:1019E000E271E00007FFF1FEFFFFFFFFC00EFFFF07
:1019F000E3C71FFFE03FFF8FFFE739E0000FFFF174
:101A0000FEFFFFFFFFC00EFFFFE7E78FFFF007FFBE
:101A10008FFFE738FFFFFFFFF1FEFFFFFFFF001E14
:101A2000FFFFE7E78FFFFE01FF8FFFE310FFFFFFE0
:101A3000FFF1FEFFFFFFFC003EFFFFE3C78FFFFF4C
:101A4000C07F8FFFE301FF1FC7FFF1FEFF83FFF0A1
:101A5000007EFFFFE0071FFFFFF83F8FFFF381FFCE
:101A60001FC7FFF1FEFC01FFE000FEFFFFF00F1FAC
:101A7000FFFFC01F8FFFFFC7FF1FC7FFF1FEF0076B
:101A8000FF8001FEFFFFF81FBFFFFE000F8FFFFF6B
:101A9000FFF80007FFF1FEC018FE0003FEFFFFFF86
:101AA000FFFFFFF007878FFFFFFFF8000FFFF1FE3A
:101AB000C0E0F8000FFEFFFFFFFFFFFFE01FC78F32
:101AC000FFFFFFF8000FFFF1FEC700E0001FFEFF61
:101AD000FFFFFF9FFFE0FFC78FFE0001FF1EFFFF1C
:101AE000F1FEDC00C0003FFEFFFFF83F1FFFE3FFF9
:101AF000C78FFE0001FF1FFFFFF1FEE0000000FFA7
:101B0000FEFFFFF00F1FFFFFFFC78FFE0001FFFF6B
:101B1000FFFFF1FEC0000003FFFEFFFFE0031FFF19
:101B2000FFFFFF8FFE03FFF87FFFFFF1FEE00000E5
:101B300007FFFEFFFFE3C19FFFFFFFFF8FFFC07F97
:101B4000F81FFFFFF1FEE000001FFFFEFFFFE7E0D0
:101B50009FFFF800FF8FFFF81FF807FFFFF1FEF06F
:101B60000000FFFFFEFFFFE7F81FFFF000FF8FFF01
:101B7000FE03F801FFFFF1FEF80003FFFFFEFFFF89
:101B8000E7FC1FFFE000FF8FFFFF83F8C07FFFF13E
:101B9000FEFC003FFFFFFEFFFFE3FE1FFFE000FF34
:101BA0008FFFFC07F8F01FFFF1FEFFB7FFFFFFFEFE
:101BB000FFFFF1FF1FFFE331FF8FFFE03FF8FC075E
:101BC000FFF1FEFFFFFFFFFFFEFFFFF3FF9FFFE3BD
:101BD00038FF8FFF00FFF8FF03FFF1FEFFFFFFFF5D
:101BE000FFFEFFFFFFFFFFFFE338FF8FFE07FFF859
:101BF000FFC3FFF1FEFFFFFFFFFFFEFFFFFFFFFF41
:101C0000FFE318FF8FFE0001F8FFF3FFF1FEFFFF77
:101C1000FFFFFFFEFFFFFFDFFFFFE300FF8FFE0080
:101C200001F8FFFFFFF1FEFFFFFFFFFFFEFFFFFFD9
:101C30008FFFFFE380FF8FFE0001F8FFFFFFF1FE43
:101C4000FFFFFFFFFFFEFFFFFF87FFFFF181FF8F19
:101C5000FFFFFFFFFFFFFFF1FEFFFFFFFFFFFEFFA4
:101C6000FFFFC3FFFFFFC3FF8FFFFFFFFFFFFFFF6C
:101C7000F1FEFFFFFFFFFFFEFFFFFFE3FFFFFFFFA0
:101C8000FF8FFFFFFFFFFFFFFFF1FE7FFFFFFFFF63
:101C9000FCFFFFFFF3FFFFFFFFFF8FFFFFFFFFFFD3
:101CA000FFFFF1FF000000000001FFFFFFE3FFFC6A
:101CB0000000FF8FFFFFFFFFFFFFFFF1FFFFFFFFB0
:101CC000FFFFFFFFFFFFE3FFFC0000FF8FFFFFFFB1
:101CD000FFFFFFFFF1FFFFFFFFFFFFFFFFFFFFC35E
:101CE000FFFC0000FF8FFFFFFFFFFFFFFFF1FFFF83
:101CF000FFFFFFFFFFFFFFFF87FFFC0000FF8FFFDD
:101D0000FFFFFFFFFFFFF1FFFFFFFFFFFFFFFFFFF1
:101D1000FF8FFFFFE3F1FF8FFFFFFFFFFFFFFFF1EB
:101D2000FFFFFFFFFFFFFFFFFFFF1FFFFFE3F9FFC5
:101D30008FFFFFFFFFFFFFFFF1FFFFFFFFFFFFFF31
:101D4000FFFFFF1FFFFFE3F8FF8FFFFFFFFFFFFF16
:101D5000FFF1FFFFFFFFFFFFFFFFFFFF3FFFFFE37D
:101D6000F8FF800000000000000001FFFFFFFFFF00
:101D7000FFFFFFFFFE3FFFFFE1F0FF8000000000DC
:101D800000000001FFFFFFFFFFFFFFFFFFFF1FFF3E
:101D9000FFF000FF8FFFFFFFFFFFFFFFF1FFFFFFDF
:101DA000FFFFFFFFFFFFFF1FFFFFF001FF8FFFFFA0
:101DB000FFFFFFFFFFF1FFFFFFFFFFFFFFFFFFFF41
:101DC0000FFFFFF801FF8FFFFFFFFFFFFFFFF1FF96
:101DD000FFFFFFFFFFFFFFFFFF87FFFFFE07FF8FF4
:101DE000FFFFFFFFFFFFFFF1FFFFFFFFFFFFFFFF11
:101DF000FFFFCFFFFFFFFFFF8FFFFFFFFFFFFFFF93
:101E0000F1FFFFFFFFFFFFFFFFFFFFFFFFFFFFFFF0
:101E1000FF8FFFFFFFFFFFFFFFF1FFFFFFFFFFFF50
:101E2000FFFFFFFFFFFFFFF800FF8FFFFFFFFFFF38
:101E3000FFFFF1FFFFFFFFFFFFFFFFFFFFF8FFFFC7
:101E4000F000FF8FFFFFFFFFFFFFFFF1FFFFFFFF2E
:101E5000FFFFFFFFFFF8703FFFE000FF8FFFFFFF76
:101E6000FFFFFFFFF1FFFFFFFFFAFFFFFFFFF02083
:101E70001FFFE000FF8FFFFFFFFFFFFFFFF1FFFFEE
:101E8000FFFFC01FFFFFFFE0021FFFE3FFFF8FFF09
:101E9000FFFFFF0FFFFFF1FFFFFFFF000FFFFFFF3F
:101EA000E3871FFFE3FFFF8FFFFFFFFF0FFFFFF140
:101EB000FFFFFFFE0007FFFFFFE78F8FFFE3FFFF3E
:101EC0008FFFFFFFFF0FFFFFF1FFFFFFFE00027F0D
:101ED000FFFFE7CF8FFFF0FFFF8FFFFFFFFF0FFF39
:101EE000FFF1FFFFFFFC00007FFFFFE7CF9FFFE058
:101EF00000FF8FFFFE0000003FFFF1FFFFFFF80033
:101F000000FFFFFFE3FF1FFFE000FF8FFFFE000069
:101F1000003FFFF1FFFFFFF83000FFFFFFF3FE1F60
:101F2000FFE000FF8FFFFE0000003FFFF1FFFFFF1B
:101F3000F83000FFFFFFF7FF3FFFE000FF8FFFFEDD
:101F40000000003FFFF1FFFFFFF00000FFFFFFFF79
:101F5000FFFFFFFFFFFF8FFFFE0000003FFFF1FFCD
:101F6000FFFFF00000FFFFFFFFFFFFFFFFFFFF8FFE
:101F7000FFFF01FF0FFFFFF1FFFFFF900000FFFFDA
:101F8000FFFFFF1FFFFFFFFF8FFFFFC07F0FFFFF60
:101F9000F1FFFFFF100000FFFFFFF81F1FFFE00031
:101FA000FF8FFFFFE03F0FFFFFF1FFFFFC1000007E
:101FB000FFFFFFF00F1FFFE000FF8FFFFFF81F0F75
:101FC000FFFFF1FFFFF8183000FFFFFFE0031FFFE6
:101FD000E000FF8FFFFFFC070FFFFFF1FFFFF80896
:101FE0003800FFFFFFE3C19FFFE000FF8FFFFFFF0F
:101FF000030FFFFFF1FFFFF0083001FFFFFFE7F0E5
:102000009FFFFFE1FF8FFFFFFF810FFFFFF1FFFF4A
:10201000E0080001FFFFFFE7F81FFFFFF9FF8FFF58
:10202000FFFFE00FFFFFF1FFFFE0E40001FFFFFF14
:10203000E7FC1FFFFFF8FF8FFFFFFFF00FFFFFF12F
:10204000FFFFE0E20003FFFFFFE3FE1FFFFFF8FFDB
:102050008FFFFFFFF80FFFFFF1FFFFC0E20007FF58
:10206000FFFFF1FF1FFFE000FF8FFFFFFFFC0FFFEF
:10207000FFF1FFFFC041000FFFFFFFF3FF9FFFE0F5
:1020800000FF8FFFFFFFFE0FFFFFF1FFFFC000C04B
:102090001FFFFFFFFFFFFFFFE001FF8FFFFFFFFFBD
:1020A000FFFFFFF1FFFFC00030FFFFFFFFFFFFFF5B
:1020B000FFE003FF8FFFFFFFFFFFFFFFF1FFFFC008
:1020C00000077FFFFFFFFFFFFFFFFFFFFF8FFFFF07
:1020D000FFFFFFFFFFF1FFFFC000003FFFFFFFFF1B
:1020E000FFFFFFFFFFFF8FFFFFFFFF07FFFFF1FF76
:1020F000FFC000007FFFFFFFFFFFFFFFFFFFFF8F1D
:10210000FFFFE0FC01FFFFF1FFFFC040007FFFFF8A
:10211000FFFFBFFFFFFFFFFF8FFFFFC07800FFFF44
:10212000F1FFFFC0E0007FFFFFFFFF3FFFFFFF87E2
:10213000FF8FFFFF803800FFFFF1FFFFE0E0007F2F
:10214000FFFFFFFF3FFFFF1E03FF8FFFFF00100099
:102150007FFFF1FFFFE0E0007FFFFFFEFFBFCFFE4C
:102160003E01FF8FFFFF0010007FFFF1FFFFE00047
:10217000003FFFFFFE3FFF8FFE3C01FF8FFFFE0091
:1021800000F07FFFF1FFFFF000003FFFFFFF3C0F7B
:102190009FFE3C30FF8FFFFE0F01F83FFFF1FFFF76
:1021A000F800011FFFFFFFF003FFFE3C78FF8FFFE9
:1021B000FE0F81FC3FFFF1FFFFF80003FFFFFFFF71
:1021C000E000FFFE3878FF8FFFFE1FC3FC3FFFF1EA
:1021D000FFFFFC0007FFFFFFFFC000FFFE1878FFB6
:1021E0008FFFFE1FC3FC3FFFF1FFFFFF000FFFFF4C
:1021F000FFFFC0007FFE00F8FF8FFFFE1FC3FC3F04
:10220000FFF1FFFFFF803FFFFFFFFF80003FFF0068
:10221000F8FF8FFFFE1FC3FC3FFFF1FFFFFFFFFF33
:10222000FFFFFFFF80003FFF01F0FF8FFFFE1FC396
:10223000FC3FFFF1FFFFFFFFFFFFFFFFFF80003FBD
:10224000FFC3F1FF8FFFFF0FC3FC3FFFF1FFFFFF55
:10225000FFFFFFFFFFF1000031FFFFFFFF8FFFFFD8
:102260000FFFF83FFFF1FFFFFFFFFFFFFFFFF10050
:102270000031FFFFFFFF8FFFFF07FFF87FFFF1FF38
:10228000FFFFFFFFFFFFFFFF80003FFFFFFFFF8F0C
:10229000FFFFFFFFF07FFFF1FFFFFFFFFFFFFFFFEB
:1022A000FF80003FFFFFFFFF8FFFFFFFFFFFFFFFEC
:1022B000F1FFFFFFFFFFFFFFFFFF80007FFFFFFF3A
:1022C000FF8FFFFFFFFFFFFFFFF1FFFFFFFFFFFF9C
:1022D000FFFFFFC0007FFFFFFFFF8FFFFFFFFFFF3C
:1022E000FFFFF1FFFFFFFFFFFFFFFFFFE000FFFF2A
:1022F000FFFFFF8FFFFFFFFFFFFFFFF1FFFFFFFF6C
:10230000FFFFFFFFFFF001FFFFFFFFFF8FFFFFFF5A
:10231000FFFFFFFFF1FFFFFFFFFFFFFFFFFF78035E
:10232000DFFFFFFFFF8FFFFFFFFFFFFFFFF1FFFF5B
:10233000FFFFFFFFFFFFFE3F1F8FFFFFFFFF8FFF2E
:10234000FFFFFFFFFFFFF1FFFFFFFFFFFFFFFFFEAC
:102350007FFFCFFFFFFFFF8FFFFFFFFFFFFFFFF1BB
:10236000FFFFFFFFFFFFFFFFFEFF3FFFFFFFFFFF3E
:102370008FFFFFFFFFFFFFFFF1FFFFFFFFFFFFFFEB
:10238000FFFFFF3FFFFFFFFFFF8FFFFFFFFFFFFF8D
:10239000FFF1FFFFFFFFFFFFFFFFFFFF3FFFFFFF1B
:1023A000FFFF8FFFFFFFFFFFFFFFF1FFFFFFFFFFBB
:1023B000FFFFFFFFFFFFFFFFFFFFFF8FFFFFFFFF9D
:1023C000FFFFFFF1FFFF000000017FFF00000000A2
:1023D000000000000FFFFFFFFFFFFFFFF1FFFD8088
:1023E0000000031FFF00000000000000000FFFFFBF
:1023F000FF0FF87FFFF1FFF8800000020FFFFFFFE3
:10240000FFFFFFFFFFFF8FFFFFFE07F83FFFF1FF1A
:10241000F0400000040FFFFFFFFFFFFFFFFFFF8FF3
:10242000FFFFFE07F03FFFF1FFF06000000C07FF29
:10243000FFFFFFFFFFFFFFFF8FFFFFFE07F03FFFE4
:10244000F1FFF02000000807FFFFFFFFFFFFFFFF85
:10245000FF8FFFFFFE07F03FFFF1FFF0300000109D
:1024600007FFFFFFFFFFFFFFFFFF8FFFFFFF07F8E3
:102470007FFFF1FFF01000003007FFFFFFFFFFFFBD
:10248000FFFFFF8FFFFFFF0FF87FFFF1FFF0180046
:10249000002007FFFFFFFFFFFFFFFFFF8FFFFFFF92
:1024A000FFFFFFFFF1FFF00800006007FFFFFFFFE5
:1024B000FFFFFFFFFF8FFFFFFFFFFFFFFFF1FFF0B9
:1024C0000400004007FFFFFFFFFFFFFFFFFF8FFF3C
:1024D000FFFFFFFFFFFFF1FFF00600008007FFFF97
:1024E000FFFFFFFFFFFFFF8FFFFFFFFFFFFFFFF17A
:1024F000FFF00200018007FFFFFFFFFFFFFFFFFF6C
:102500008FFFFFFFFFFFFFFFF1FFF0030001000758
:10251000FFFFFFFFE0000000FF8FFFFFFFFFFFFF57
:10252000FFF1FFF00100020007FFFFFFFF000000C6
:1025300000FF8FFFFFFFFFFFFFFFF1FFF0018006AD
:102540000007FFFFFFFC00000000FF8FFFFFFFFF01
:10255000FFFFFFF1FFF00080040007FFFFFFF00026
:10256000380000FF8FFFFFFFFFFFFFFFF1FFF000CC
:1025700040080007FFFFFFE000FE0000FF8FFFFFA5
:10258000FFFFFFFFFFF1FFF00040080007FFFFFF24
:10259000C003FF8000FF8FFFFFFFFFFFFFFFF1FF82
:1025A000F00020100007FFFFFF800FFFF800FF8FF3
:1025B000FFFFFFFFFFFFFFF1FFF00030300007FFDC
:1025C000FFFF003FFFFC00FF8FFFFFFFFFFFFFFF4C
:1025D000F1FFF00010200007FFFFFE00FFE7FE0004
:1025E000FF8FFFFFFFFFFFFFFFF1FFF0001840002C
:1025F00007FFFFFC01FF81FF00FF8FFFFFF03FFCA3
:102600003FFFF1FFF00008C00007FFFFFC01FF00E3
:102610007F00FF8FFFFFC00FFC3FFFF1FFF00004C2
:10262000800007FFFFF801FFC07F80FF8FFFFF8062
:1026300007FC3FFFF1FFF00005000007FFFFF80077
:10264000FFF80000FF8FFFFF0003FC3FFFF1FFF0EA
:102650000003000007FFFFF0001FFE0000FF8FFFD8
:10266000FF0001FC3FFFF1FFF00003000007FFFF48
:10267000F00007FF8000FF8FFFFE0000FC3FFFF12E
:10268000FFF00001000007FFFFF1FF81FF8000FF66
:102690008FFFFE0780FC3FFFF1FFF0000180000785
:1026A000FFFFE0FF007F8000FF8FFFFE0FE07C3F19
:1026B000FFF1FFF04780800007FFFFE07FC13F8010
:1026C00000FF8FFFFE1FF03C3FFFF1FFF04FC040C7
:1026D0000007FFFFE03FF94F0000FF8FFFFE1FF8EC
:1026E0001C3FFFF1FFF04C40400007FFFFE01FFEE2
:1026F000780000FF8FFFFE1FF80C3FFFF1FFF06432
:10270000C0400007FFFFE00FFF800000FF8FFFFECB
:102710001FFC043FFFF1FFF07FC0400007FFFFE018
:1027200005FFF00000FF8FFFFE1FFE003FFFF1FFDF
:10273000F01F00C00007FFFFE0003FFC0000FF8F1C
:10274000FFFF0FFF003FFFF1FFF00000800007FFD9
:10275000FFE0000FFF0000FF8FFFFF0FFF003FFFB4
:10276000F1FFF00001000007FFFFE00003FF800021
:10277000FF8FFFFF07FFC03FFFF1FFF000010000E8
:1027800007FFFFE00007FF8001FF8FFFFF87FFE0EB
:102790003FFFF1FFF00002000007FFFFE0003FFFF6
:1027A0000001FF8FFFFFFFFFF83FFFF1FFF0000682
:1027B000000007FFFFE000FFFC0001FF8FFFFFFFAD
:1027C000FFFFFFFFF1FFF00005000007FFFFE00142
:1027D000FFE00001FF8FFFFFFFFFFFFFFFF1FFF0B2
:1027E000000D800007FFFFE001FF000003FF8FFFE7
:1027F000FFFFFFFFFFFFF1FFF00008800007FFFF72
:10280000E001FF800003FF8FFFFFFFFFFFFFFFF1ED
:10281000FFF00010400007FFFFE000FFF00003FFA3
:102820008FFFFFFFFFFFFFFFF1FFF00010400007E9
:10283000FFFFE0001FFE0007FF8FFFFFFFFFFFFF0E
:10284000FFF1FFF00020200007FFFFE00003FF8002
:1028500007FF8FFFFFFFFFFFFFFFF1FFF00060307A
:102860000007FFFFE00007FF800FFF8FFFFFFFFF64
:10287000FFFFFFF1FFF00040100007FFFFE0003F07
:10288000FF801FFF8FFFFFFFFFFFFFFFF1FFF00043
:10289000C0080007FFFFE001FFFF001FFF8FFFFEE2
:1028A0000000003FFFF1FFF000800C0007FFFFE099
:1028B00001FFF8003FFF8FFFFE0000003FFFF1FF28
:1028C000F00180040007FFFFE001FFE0007FFF8FC1
:1028D000FFFE0000003FFFF1FFF00100020007FFD4
:1028E000FFE001FE0000FFFF8FFFFE0000003FFF42
:1028F000F1FFF00200030007FFFFE001F00003FF1B
:10290000FF8FFFFE0000003FFFF1FFF00600010017
:1029100007FFFFE001800007FFFF8FFFFF000000BF
:102920003FFFF1FFF00400018007FFFFE00000001F
:102930001FFFFF8FFFFF83FFFFFFFFF1FFF00C0082
:10294000008007FFFFE0000000FFFFFF8FFFFF8117
:10295000FFFFFFFFF1FFF00800004007FFFFE0006E
:10296000000FFFFFFF8FFFFFC1FFFFFFFFF1FFF031
:102970001800006007FFFFFFFFFFFFFFFFFF8FFF53
:10298000FFC1FFFFFFFFF1FFF01000002007FFFF76
:10299000FFFFFFFFFFFFFF8FFFFFE0FFFFFFFFF1E4
:1029A000FFF02000001007FFFFFFFFFFFFFFFFFF0A
:1029B0008FFFFFE0FFFFFFFFF1FFF060000018074F
:1029C000FFFFFFFFFFFFFFFFFF8FFFFFFFFFFFFF87
:1029D000FFF1FFF04000000807FFFFFFFFFFFFFFD0
:1029E000FFFF8FFFFFFFFFFFFFFFF1FFF8C00000B9
:1029F000040FFFFFFFFFFFFFFFFFFF8FFFFFFFFF42
:102A0000FFFFFFF1FFF8800000041FFFFFFFFFFF43
:102A1000FFFFFFFF8FFFFFFFFFFFFFFFF1FFFF0043
:102A20000000023FFFFFFFFFFFFFFFFFFF8FFFFFE1
:102A3000FFFFFFFFFFF1FFFFFFFFFFFFFFFFFFFFB4
:102A4000FFFFFFFFFFFF8FFFFFFFFFFFFFFFF1FF14
:102A5000FFFFFFFFFFFFFFFFFFFFFFFFFFFFFF8FF6
:102A6000FFFFFFFFFFFFFFF1FFFFFFFFFFFFFFFF84
:102A7000C4E30000000000000000000000000000AF
:102A8000000000000000000000000000000001C184
:102A9000C00001E3E00003E3C00003C7800003C7F8
:102AA000FFFF078FFFFF078F000F0F1E001E0F3C59
:102AB0001E1E1F3C1E3E1F181E3C3F001E1C7F009A
:102AC0001E007F079E70FF079EF0EF0F9E786F0F2E
:102AD0001E780F0F1E3C0F1E1E3C0F1E1E1E0F3CAD
:102AE0001E1E0F3C1E1F0F7C1E0F0F781E0E0F00A8
:102AF0001E000F001E000F003C000F07FC000F0718
:102B0000F8000000000000000000000000000000CD
:102B1000000000000000BAC3000000000000000038
:102B200000000000000000000000000000000000A5
:102B30000F0000000F0000000F07FFFE0F07FFFE51
:102B40000F00003E1E0000FCFFF801F0FFF803E05C
:102B50001E7807C01E780F803C780F003C780F006D
:102B60003C780F003C780F003C7FFFFF78FFFFFFB1
:102B700078F00F0078F00F003DE00F001FE00F002D
:102B80000FE00F0007C00F0007E00F0007F00F0075
:102B90000FF80F001E7C0F003C380F0078000F006C
:102BA000F003FF006001FE000000000000000000D4
:102BB000000000000000000000000000CEA20000A5
:102BC0000000000000000000000000000000000005
:102BD000000000000000030701E0078701E007078D
:102BE00001C00FF779C01EF77BC01EF77B803CF752
:102BF0007BFF78F77BFFF8F77F9EF7FFFF9E67FF6D
:102C0000FF9E07007F9C0F000F9C1E001F9C1E7FD5
:102C1000FFBC3E7FF3FC3E0003FC7E0001F8FE009B
:102C200001F8FE7FE1F8DE7FE1F81E78E0F01E7823
:102C3000EEF01E78FFF01E78FDF81E79FBFC1EF109
:102C4000F7BC1EF0EF9E1FE00F0F1EC01E0F1E00F0
:102C50000C07000000000000000000000000000061
:102C60000000C8ED000000000000000000000000AF
:102C7000000000000000000003C07800078078001A
:102C8000078078000780F0000F00F000FFFFFFFFD3
:102C9000FFFFFFFF1E03C01F1E03C01E1FE78F3E66
:102CA0003DE78F3C3DEF0F7C3DE70F7879E00F006B
:102CB00079E00E007FFE0E007FFE1F0001E01F0086
:102CC00001E01F0001E01F8001E01F8001E03F8064
:102CD00001FF3FC00FFF7BC0FFF079E0F9E0F1F0AA
:102CE00001E1F0F001E3E0F801E7C07C01FF803F83
:102CF00001FF001F01EC000E0000000000000000BA
:102D00000000000000000000D1C50000000000002D
:102D100000000000000000000000000000000000B3
:102D20000000000077000000FF007FFCF7807FFDBF
:102D3000E3C001C1E3C001C3C1803DC7FFFF39C784
:102D4000FFFF39CF838079DF838079FF838079DF4C
:102D5000838071C383807FFFFFFE7FFFFFFE03C37D
:102D6000838007C3838007C383800FC383800FC31F
:102D700083801FC3FFFE1DC3FFFE3DC3838079C355
:102D80008380F1C38380F1C3838061C3838001C3E7
:102D9000FFFF03C3FFFF1FC380001F8380000000ED
:102DA0000000000000000000000000000000BADA8F
:102DB0000000000000000000000000000000000013
:102DC0000000000000000000000000000000000003
:102DD0001FFFFFFC1FFFFFFC1E03C03C1EC3C73CC0
:102DE0001FE3C7BC1EF3CF3C1EFBDF3C1E7BDE3C5B
:102DF0001E33DC3C1E03C03C1FFFFFFC1FFFFFFC1B
:102E00001E03C03C0003C0000003C0003FFFFFFCE6
:102E10003FFFFFFC0003C0000003C0000003C00030
:102E2000FFFFFFFFFFFFFFFF000000001C38707076
:102E30003E78F8F83C7C787C7C3C3C3EF83E3C1F7D
:102E4000F01C180E00000000000000000000000050
:102E500000000000B4CB00000000000000000000F3
:102E60000000000000000000000000000000000062
:102E7000000000783C0000783C0000783C000078BE
:102E80003C0000783C0000783C0C3C783C1E3C78D0
:102E90003C3F3C783CF83C7FFDF03C7FFFE03C78D9
:102EA0003F803C783E003C783C003C783C003C78DD
:102EB0003C003C783C003C783C003C783C003C7852
:102EC0003C0E3C783C0F3C783C0F3C79FC0F3C7F3F
:102ED000FC0F3FFF3C0F3FF03E1EFF001FFEF000C7
:102EE0000FFC0000000000000000000000000000D7
:102EF00000000000000000000000D7D60000000025
:102F000000000000000000000000000000000000C1
:102F100000038000000780000003C0000003E00001
:102F20000001E0007FFFFFFE7FFFFFFE7800001E34
:102F30007800001E7800001E7800001E7BFFFFDE78
:102F400003FFFFC000000FC000003F0000007E0034
:102F50000001F8000001E0000001E000FFFFFFFFBA
:102F6000FFFFFFFF0001E0000001E0000001E000C2
:102F70000001E0000001E0000001E0000003E000CB
:102F80000003C00000FFC00000FF80000000000040
:102F90000000000000000000000000000000000031
:102FA000CCE5000000000000000000000000000070
:102FB000000000000000000000000000000003C04E
:102FC0003C0003C03C0003C03C0007803C0007807D
:102FD0003C0007803C000FFFFFFF0FFFFFFF1F01BA
:102FE000FE001F01FF003F01FF003F03FF007F03C2
:102FF000FF807F07BF80FF07BFC0EF0F3DC0CF0F2F
:103000003DE00F1E3DE00F1E3CF00F3C3C780F7C76
:103010003C7C0FF83C3E0FF7FFDF0FE7FFCF0FC000
:103020003C060F003C000F003C000F003C000F006E
:103030003C000F003C000000000000000000000009
:10304000000000000000CFC20000000000000000EF
:103050000000000000000000000000000000000070
:103060000000000000000000FFFFFFFFFFFFFFFF68
:10307000000F8000000F8000000F8000000F800014
:10308000000F8000000F8000000FE000000FF8002C
:10309000000FFC00000FBF00000F9F80000F87E0B3
:1030A000000F83F0000F80F8000F807C000F803845
:1030B000000F8000000F8000000F8000000F8000D4
:1030C000000F8000000F8000000F8000000F8000C4
:1030D000000F8000000F80000000000000000000D2
:1030E000000000000000000000000000B6D4000056
:1030F00000000000000000000000000000000000D0
:103100000000000000000000000000000078000047
:103110000078000000787FFC00787FFC0078003C9D
:103120000078003FFFFF303FFFFF783C00783C38DD
:1031300000783E7800781E78C0780F79E0780FF03C
:10314000F07807F0F87803F0787801E03C7803F045
:103150003E7803F0187807F8007807FC00780F3EF7
:1031600000781F1E00783E1F00787C0E00F8F800E3
:1031700000F0F0003FF060003FE0000000000000C1
:10318000000000000000000000000000000000003F
:103190000000D3A6000000000000000000000000B6
:1031A00000000000000000000001C0000003E0007B
:1031B0000001E0000001F0000000F0001FFFFFFF31
:1031C0001FFFFFFF1E0000001E0000001E01E07830
:1031D0001E01E0781EE1E0781FF1F0F81EF0F0F03B
:1031E0001EF0F0F01EF8F0F01E78F1F01E78F9E015
:1031F0001E7879E01E7C7BE01E3C7BC01E3C7BC0C1
:103200001E3C7BC03C3E07803C1C07803C00078086
:103210003C000F0078000F007BFFFFFFF3FFFFFF74
:10322000F00000006000000000000000000000004E
:103230000000000000000000B5C400000000000015
:10324000000000000000000000000000000000007E
:10325000000003803C0007C03E0007803C00078060
:103260007C000F0078007FFE7FFE7FFEFFFE781E51
:10327000F01E781FE01E781FE01E781FC01E781F0A
:10328000C01E781FF01E781EF81E781E7C1E7FFE62
:103290003C1E7FFE1E1E781E1F1E781E0F9E781E6F
:1032A000079E781E071E781E001E781E001E781EC0
:1032B000003E781E003C781E003C7FFE003C7FFEF6
:1032C000007C781E3FF8781E3FF0000000000000F0
:1032D0000000000000000000000000000000B5E356
:1032E00000000000000000000000000000000000DE
:1032F00000000000000000000003C0000003C00048
:103300000003C0000003C0000003FFFF0003FFFF35
:103310000003C0000003C0000003C0000003C000A1
:103320000FFFFFF80FFFFFF80F0000780F00007885
:103330000F0000780F0000780F0000780F00007871
:103340000FFFFFF80FFFFFF80F00007800000000EC
:103350000C3838301E7C78783E3C78783C3C3C3CDD
:103360007C3E3C3EF81E3C1EF01E1E1F701E1C0EB6
:10337000000000000000000000000000000000004D
:1033800000000000D5F30000000000000000000075
:10339000000000000000000000000000000000002D
:1033A0003C00000078007FF078007FF0780079FF23
:1033B000FFFF79FFFFFF79E1E00079E1E0007BC1E9
:1033C000EF807BC3CF807BC3CF807F87CF807F8719
:1033D0008F807F878F807BCF0F807BCFFFFE79EF41
:1033E000FFFE79E00F8078E00F8078F00F8078F0B2
:1033F0000F8078F00F8078FFFFFF79FFFFFF7FE0FD
:103400000F807FC00F8078000F8078000F807800D9
:103410000F8078000F8078000F800000000000000F
:1034200000000000000000000000CEAA0000000024
:10343000000000000000000000000000000000008C
:103440000000000000000000000780000E07800060
:103450001F0780000F87800007C7800001E78000FA
:1034600000C78000000780007FFFFFFC7FFFFFFC9C
:103470000007803C000F803C000F003C000F003C28
:10348000000F603C001FF03C001E783C003E3C3CBE
:10349000003C3E3C007C1F3C00780F3C00F8063CA2
:1034A00001F0003C03E0007C07C0007C0F80007846
:1034B0001F0000F83E00FFF07C00FFE03800000035
:1034C00000000000000000000000000000000000FC
:1034D000CAF700000000000000000000000000002B
:1034E00000000000000000000000000000000F00CD
:1034F00000380F0000380F0000380F3FF8380F3F3A
:10350000F8380F007838FFE07FFFFFE07FFF0F0003
:1035100070380F18F0381F3CF0381F1CFE381FDEC3
:10352000FE383FEFEF383FFFEF383FF7E7B87F67F0
:10353000C7B87F03C3B8FF07E038EF07E038EF0FE5
:10354000F038CF1FF0380F1E78380F3C7C380F78DA
:103550003C380FF838380F6000780F000FF80F0074
:1035600007F00F0000000000000000000000000055
:10357000000000000000DDAE0000000000000000C0
:10358000000000000000000000000000000000003B
:10359000003C1E00003C1E00003C1E00FFFFFFFF21
:1035A000FFFFFFFF003C1E0007BC1E00078000005D
:1035B0000FFFFFFC0FFFFFFC1E0000003C0000009F
:1035C0003C0000007FFFFFF0F7FFFFF0378380F043
:1035D0000787C0F00783F0F00700E0F0FFFFFFFF70
:1035E000FFFFFFFF0F0F00E00F0F81E00E03E1E090
:1035F0001E01C1E01FFFFFFE1FFFFFFE000001E0F4
:10360000000003C00000FFC00000FF8000000000B9
:10361000000000000000000000000000C5C900001C
:10362000000000000000000000000000000000009A
:10363000000000000000000000003800003E7C0098
:103640003FFE3F3FFFF01FBFE00007BC0000033C10
:103650000000003C003C003C0FFE703DFFF8F83DD0
:10366000FF007C3DE7803F3DE7801F3DE78E0E3D3C
:10367000E79F003DE7FE0039E7F80039E3F01C3929
:10368000E3C01E79E3C01E79E1E01E79E1E03C79F8
:10369000E0F03C79E0F83CF1E07C3CF1E37C7DF14A
:1036A000EF3F79E1FE1F7BE1F80E7BC3E0007981FB
:1036B000C00000000000000000000000000000004A
:1036C00000004100000000000000000000000000B9
:1036D00000000000000000000000000000000000EA
:1036E00000000000007C000000FC000000FE000064
:1036F00000FE000001FF000001FF000001EF0000DC
:1037000003EF800003CF800007C7800007C7C00019
:103710000787C0000F83E0000F83E0000F01E00087
:103720001FFFF0001FFFF0003FFFF8003E00F80011
:103730003C00F8007C007C007C007C0078003C00B1
:10374000F8003E00F8003E0000000000000000000D
:103750000000000000000000000000000000000069
:1037600000000000000000006100000000000000F8
:103770000000000000000000000000000000000049
:103780000000000000000000000000000000000039
:103790000000000000000000000000000000000029
:1037A00000000000000007F800001FFE00003FFEC0
:1037B00000003E3F0000381F0000000F0000000F17
:1037C000000003FF00001FFF00003F8F00007C0F80
:1037D00000007C0F0000781F00007C1F00007E7F2F
:1037E00000007FFF00003FFF00000FCF000000003F
:1037F00000000000000000000000000000000000C9
:103800000000000000000000000000000000620056
:1038100000000000000000000000000000000000A8
:103820000000000000000000000000003C0000005C
:103830003C0000003C0000003C0000003C00000098
:103840003C0000003C0000003C0000003CFE00008A
:103850003DFF80003FFFC0003F8FC0003F07E000FA
:103860003E03E0003E03E0003C01E0003C01E000DC
:103870003C01E0003C03E0003E03E0003E03E000CA
:103880003F07C0003F8FC0003FFF80003FFF0000A8
:103890003CFC0000000000000000000000000000F0
:1038A0000000000000000000000000000000000018
:1038B00000000000630000000000000000000000A5
:1038C00000000000000000000000000000000000F8
:1038D00000000000000000000000000000000000E8
:1038E00000000000000000000000000000000000D8
:1038F000000001FC000007FE00001FFE00003F86E4
:1039000000003E0000007C0000007C0000007C0005
:10391000000078000000780000007C0000007C00BF
:1039200000007C0000003E0000003F8600001FFEFB
:1039300000000FFE000003FC00000000000000007B
:103940000000000000000000000000000000000077
:1039500000000000000000000000CEA200000000F7
:103960000000000000000000000000000000000057
:1039700000000000030701E0078701E0070701C01E
:103980000FF779C01EF77BC01EF77B803CF77BFFEB
:1039900078F77BFFF8F77F9EF7FFFF9E67FFFF9E9C
:1039A00007007F9C0F000F9C1E001F9C1E7FFFBC0A
:1039B0003E7FF3FC3E0003FC7E0001F8FE0001F8B0
:1039C000FE7FE1F8DE7FE1F81E78E0F01E78EEF091
:1039D0001E78FFF01E78FDF81E79FBFC1EF1F7BC87
:1039E0001EF0EF9E1FE00F0F1EC01E0F1E000C07E3
:1039F00000000000000000000000000000000000C7
:103A0000D1A900000000000000000000000000003C
:103A100000000000000000000000000000000000A6
:103A200000001FFFFFF81FFFFFF80003C0000003A6
:103A3000C0007FFFFFFE7FFFFFFE7803C01E7803FC
:103A4000C01E7FFFFFFE7FFFFFFE0003C0000003DC
:103A5000C00007FFFFE007FFFFE00003C000000019
:103A600000001FFFFFF81FFFFFF8000000780000B4
:103A700000781FFFFFF81FFFFFF80000007800002C
:103A80000078000000783FFFFFF83FFFFFF80000DC
:103A900000780000000000000000000000000000AE
:103AA000000000000000B5E700000000000000007A
:103AB0000000000000000000000000000000000006
:103AC00000078000000780000007800000078000DA
:103AD0007FFFFFF87FFFFFF8780780F8780780F80E
:103AE000780780F8780780F8780780F8780780F8FA
:103AF0007FFFFFF87FFFFFF8780780F8780780F8EE
:103B0000780780F8780780F8780780F8780780F8D9
:103B10007FFFFFF87FFFFFF87807800E7807800FA0
:103B20000007800F0007800F0007801F0007801E1E
:103B30000003FFFE0001FFFC000000000000000089
:103B4000000000000000000000000000D7D30000CB
:103B50000000000000000000000000000000000065
:103B600000000000000000000000000000001FFF37
:103B7000FFF81FFFFFF8000001F8000007E0000059
:103B80000FC000001F8000003E000000FC0000018C
:103B9000F8000003E0000003E0000003E000FFFF86
:103BA000FFFFFFFFFFFF0003E0000003E000000352
:103BB000E0000003E0000003E0000003E000000379
:103BC000E0000003E0000003E0000003E000000369
:103BD000E0000003C00001FFC00000FF8000000003
:103BE00000000000000000000000000000000000D5
:103BF00000000000000000000000000000000000C5
:103C000000000000000000000000000000000000B4
:103C1000000000000000000000000000000007009D
:103C20000700070007000700070007000200020066
:103C30000000000007000700000000000000000076
:103C400000000000000000001CE01CE01CE0084038
:103C500008400840000000000000000000000000D4
:103C60000000000000000000000000000CC00CC0BC
:103C70000CC00CC00CC03FF03FF00CC00CC03FF0BB
:103C80003FF00CC00CC00CC00CC00CC00000000009
:103C9000000000000300030007E00FE018601800B8
:103CA0001F000FC000E0186018601FC01F800300D5
:103CB00003000300000000000000000000001C00E2
:103CC0002200220022001C6001E00F803C0031C075
:103CD00002200220022001C00000000000000000BD
:103CE0000000000000000000000003E00FE00C00F6
:103CF0000C0006000F301FF019E018C01FF007B0CD
:103D000000000000000000000000000000000000B3
:103D10000380038003800100010001000000000017
:103D20000000000000000000000000000000000093
:103D300000000000000000C000C001800180018080
:103D4000030003000300030003000300018001805F
:103D5000018000C000C000000000000000000C0056
:103D60000C00060006000600030003000300030029
:103D7000030003000600060006000C000C00000013
:103D80000000000000000300030003001B601FE0B0
:103D9000078007800FC00CC000000000000000007A
:103DA0000000000000000000000000000000000013
:103DB000000003000300030003003FF03FF0030096
:103DC00003000300030000000000000000000000EA
:103DD00000000000000000000000000000000000E3
:103DE000000000000000000000000380030003004A
:103DF00006000600040000000000000000000000B3
:103E0000000000000000000000003FE03FE0000074
:103E100000000000000000000000000000000000A2
:103E20000000000000000000000000000000000092
:103E300000000000000000000000038003800380F9
:103E400000000000000000000000000000600060B2
:103E500000C000C000C00180018003000300060014
:103E600006000C000C000C001800180000000000F8
:103E70000000000000000F801FC018C030603060DC
:103E80003060306030603060306018C01FC00F801C
:103E9000000000000000000000000000000003001F
:103EA0001F001F00030003000300030003000300C2
:103EB000030003001FE01FE00000000000000000FE
:103EC0000000000000000F801FC038E0306000607C
:103ED00000C00180030006000C0018003FE03FE036
:103EE00000000000000000000000000000000F8043
:103EF0003FC030E0006000E007C007C000E00060A5
:103F0000006060E07FC03F80000000000000000013
:103F100000000000000001C003C003C006C00CC0C8
:103F20000CC018C030C03FE03FE000C003E003E039
:103F300000000000000000000000000000001FC0A2
:103F40001FC0180018001F801FC018E0006000602C
:103F5000006030E03FC01F80000000000000000053
:103F600000000000000003E00FE01E001800380011
:103F700037803FC038E03060306018E01FC00780F5
:103F800000000000000000000000000000003FE012
:103F90003FE03060006000C000C000C001800180D0
:103FA0000180030003000300000000000000000087
:103FB0000000000000000F801FC038E0306038E0D3
:103FC0001FC01FC038E03060306038E01FC00F8075
:103FD00000000000000000000000000000000F00D2
:103FE0001FC038C03060306038E01FE00F6000E074
:103FF00000C003C03F803E00000000000000000041
:10400000000000000000000000000000000003802D
:104010000380038000000000000003800380038011
:104020000000000000000000000000000000000090
:1040300000000000000001C001C001C0000000003D
:1040400000000380030006000600040000000000DA
:1040500000000000000000000000003000F003C07D
:1040600007001C0078001C00070003C000F00030AF
:104070000000000000000000000000000000000040
:104080000000000000007FF07FF0000000007FF0E3
:104090007FF00000000000000000000000000000B1
:1040A0000000000000000000000030003C000F0095
:1040B000038000E0007800E003800F003C00300047
:1040C00000000000000000000000000000000000F0
:1040D0000F801FC018601860006001C003800300DB
:1040E00000000000070007000000000000000000C2
:1040F00000000000000003800C80084010401040C9
:1041000011C012401240124011C0100008000840B7
:104110000780000000000000000000000000000018
:104120001F801F80038006C006C00CC00C601FE00B
:104130001FE0303078787878000000000000000040
:1041400000000000000000003F803FC018601860C1
:1041500018E01FC01FE01870183018303FF03FE023
:10416000000000000000000000000000000000004F
:1041700007B00FF01C7038303000300030003000D5
:1041800038301C700FE007C0000000000000000085
:1041900000000000000000007F807FC030E0307031
:1041A0003030303030303030307030E07FC07F80A1
:1041B00000000000000000000000000000000000FF
:1041C0003FF03FF01830183019801F801F80198091
:1041D000183018303FF03FF00000000000000000F1
:1041E00000000000000000003FF03FF018301830E1
:1041F00019801F801F801980180018003F003F00A1
:1042000000000000000000000000000000000000AE
:1042100007B01FF0187030303000300031F831F83E
:10422000303018301FF007C0000000000000000010
:1042300000000000000000003CF03CF01860186036
:1042400018601FE01FE01860186018603CF03CF038
:10425000000000000000000000000000000000005E
:104260001FE01FE00300030003000300030003003E
:10427000030003001FE01FE000000000000000003A
:10428000000000000000000003F803F80060006078
:104290000060006030603060306030E03FC00F8010
:1042A000000000000000000000000000000000000E
:1042B0003EF83EF818E019801B001F001D8018C052
:1042C00018C018603E783E38000000000000000072
:1042D00000000000000000003F003F000C000C0048
:1042E0000C000C000C000C300C300C303FF03FF098
:1042F00000000000000000000000000000000000BE
:104300007878787838703CF034B037B037B03330E4
:10431000333030307CF87CF80000000000000000F2
:10432000000000000000000039F03DF01C601E603D
:104330001E601B601B6019E019E018E03EE03E6063
:10434000000000000000000000000000000000006D
:1043500007800FC01CE038703030303030303030E3
:1043600038701CE00FC00780000000000000000053
:1043700000000000000000003FC03FE0187018304F
:10438000183018701FE01FC0180018003F003F00D1
:10439000000000000000000000000000000000001D
:1043A00007800FC01CE03870303030303030303093
:1043B00038701CE00FC0078007B00FF00CE0000061
:1043C00000000000000000003FC03FE018701830FF
:1043D00018701FE01FC018E0186018703E383E18B3
:1043E00000000000000000000000000000000000CD
:1043F0000FB01FF03870303038001F8007E00070B9
:10440000303038703FE037C000000000000000008E
:1044100000000000000000003FF03FF03330333078
:104420003330030003000300030003000FC00FC07C
:10443000000000000000000000000000000000007C
:104440003CF03CF018601860186018601860186044
:1044500018601CE00FC00780000000000000000092
:10446000000000000000000078F078F0306030605C
:1044700018C018C00D800D800D80070007000700D0
:10448000000000000000000000000000000000002C
:104490007C7C7C7C301833983398339836D816D08F
:1044A0001C701C701C701830000000000000000020
:1044B000000000000000000078F078F0306018C0C4
:1044C0000D80070007000D8018C0306078F078F08C
:1044D00000000000000000000000000000000000DC
:1044E0003CF03CF018600CC007800780030003001C
:1044F000030003000FC00FC0000000000000000018
:1045000000000000000000001FE01FE0186018C05D
:1045100001800300030006000C6018601FE01FE02C
:10452000000000000000000000000000000003C0C8
:1045300003C00300030003000300030003000300A3
:104540000300030003000300030003C003C00000D6
:1045500000000000180018000C000C000C00060001
:104560000600030003000180018000C000C000C0FD
:1045700000600060000000000000000000000F006C
:104580000F00030003000300030003000300030007
:10459000030003000300030003000F000F000000EE
:1045A000000000000000020007000D8018C030600D
:1045B00020200000000000000000000000000000BB
:1045C00000000000000000000000000000000000EB
:1045D00000000000000000000000000000000000DB
:1045E00000000000000000000000000000000000CB
:1045F000FFFCFFFC0000040003000080000000003E
:1046000000000000000000000000000000000000AA
:10461000000000000000000000000000000000009A
:104620000000000000000FC01FE000600FE01FE06E
:10463000386030E03FF01F70000000000000000014
:104640000000000000007000700030003000378073
:104650003FE0386030303030303038607FE0778095
:10466000000000000000000000000000000000004A
:1046700000000000000007B01FF01830303030009C
:10468000300038301FF00FC00000000000000000B4
:10469000000000000000007000700030003007B023
:1046A0001FF0187030303030303038701FF807B8D5
:1046B00000000000000000000000000000000000FA
:1046C00000000000000007801FE018603FF03FF08E
:1046D000300018301FF007C000000000000000008C
:1046E00000000000000003F007F0060006001FE0D5
:1046F0001FE0060006000600060006001FE01FE09F
:1047000000000000000000000000000000000000A9
:1047100000000000000007B81FF81870303030307B
:10472000303018701FF007B0003000700FE00FC07D
:1047300000000000000038003800180018001BC0FE
:104740001FE01C6018601860186018603CF03CF0B6
:104750000000000000000000000000000000030056
:104760000300000000001F001F00030003000300FF
:10477000030003001FE01FE0000000000000000035
:1047800000000000000003000300000000001FC044
:104790001FC000C000C000C000C000C000C000C0FA
:1047A00000C001C03F803F00000000000000380052
:1047B0003800180018001BE01BE01B001E001E0044
:1047C0001B00198039F039F00000000000000000E3
:1047D0000000000000001F001F0003000300030092
:1047E0000300030003000300030003001FE01FE0B9
:1047F00000000000000000000000000000000000B9
:104800000000000000007EE07FF0333033303330B2
:10481000333033307BB87BB800000000000000006C
:1048200000000000000000000000000000003BC08D
:104830003FE01C6018601860186018603CF03CF0A5
:104840000000000000000000000000000000000068
:1048500000000000000007801FE01860303030309A
:10486000303018601FE007800000000000000000EA
:104870000000000000000000000000000000778041
:104880007FE0386030303030303038603FE03780A3
:10489000300030007C007C000000000000000000C0
:1048A00000000000000007B81FF8187030303030EA
:1048B000303018701FF007B00030003000F800F8FA
:1048C00000000000000000000000000000003CE0CC
:1048D0003DF00F300E000C000C000C003FC03FC03C
:1048E00000000000000000000000000000000000C8
:1048F00000000000000007E01FE018601E000FC06D
:1049000001E018601FE01F800000000000000000B0
:1049100000000000000000000C000C000C003FE054
:104920003FE00C000C000C000C000C300FF007C036
:104930000000000000000000000000000000000077
:1049400000000000000038E038E0186018601860CF
:10495000186018E01FF00F70000000000000000059
:10496000000000000000000000000000000078F0DF
:1049700078F0306018C018C00D800D800700070067
:104980000000000000000000000000000000000027
:1049900000000000000078F078F03260326037E00C
:1049A0001DC01DC018C018C000000000000000009D
:1049B00000000000000000000000000000003CF0CB
:1049C0003CF00CC00780030007800CC03CF03CF0BA
:1049D00000000000000000000000000000000000D7
:1049E00000000000000078F078F0306018C018C0B7
:1049F0000D800F800700060006000C007F007F007E
:104A000000000000000000000000000000001FE0A7
:104A10001FE018C00180030006000C601FE01FE0CB
:104A2000000000000000000000000000000001C0C5
:104A300003C00300030003000300030007000E008F
:104A40000700030003000300030003C001C00000CF
:104A50000000000000000300030003000300030047
:104A6000030003000300030003000300030003002E
:104A700003000300030000000000000000001C0011
:104A80001E00060006000600060006000700038060
:104A9000070006000600060006001E001C000000BD
:104AA0000000000000000000000000000000000006
:104AB0000E003F3033F001E0000000000000000075
:104AC0000000000000000000000000002DE9F0439D
:104AD0009FB000BF65A6269CDFF8B48A8DF83B40E6
:104AE000029100240B944FF0FF37044691461D4677
:104AF0000AE019F8011B0298A0470028029000F074
:104B0000A1800B98401C0B9099F8000050B125280B
:104B1000EFD1002100220591069207910892099198
:104B20000A9203E00B98A5E041F0010119F8010F8A
:104B30002028F9D023280CD02B2804D02D2805D0EC
:104B4000302809D080E041F00201EFE741F0040194
:104B5000ECE741F00801E9E741F01001E6E70D92CA
:104B60000AE00D98404505DA00EB800002EB4002B8
:104B7000303A0D9209F1010999F80020A2F13000B4
:104B80000A28EED399F800002E2818BF0C9726D1DA
:104B900019F8010F2A2808D12868286009F10109AD
:104BA00050F8042B28600C9219E02D280CBF09F155
:104BB0000109002000220C920BE040B90C9A4245FA
:104BC00005DA02EB820203EB4203303B0C9309F15E
:104BD000010999F80030A3F130020A2AEDD3ADF8AB
:104BE0003810304699F8001000F06AFE08B119F844
:104BF000010B8DF83A009DF83A00682805D199F824
:104C0000000068280CD1622106E06C2804BF99F8E6
:104C100000006C2804D171218DF83A1009F10109C6
:104C200010A804902A4619F8013B6946204600F076
:104C300061F838B910AA6946204600F08FF90028BB
:104C40007FF562AF384615E02A2888D12A682A60A5
:104C500052F8040B2A6000280D9003D540420D90B5
:104C600041F0040109F101098CE70000686A6C74E5
:104C70007A4C00001FB0BDE8F083622820D068287D
:104C800011D06A2803D06C2827D0712825D1086854
:104C9000C01D20F007000860D0E90023083008603C
:104CA000194610467047002A0A680A60106803D047
:104CB000121D0A6000B217E0121D0A6080B217E0F0
:104CC000002A0A680A60106803D0121D0A6040B208
:104CD0000AE0121D0A60C0B20AE0002A0A680A60EF
:104CE000106803D0121D0A60C1177047121D0A60B8
:104CF0000021704770B51C460D46B4F125002E69A1
:104D0000114600F019811C3868D0001F022865D9AF
:104D1000133842D0093861D0801E16D0401E1ED0F4
:104D2000401E02285AD9001F19D0401F00F0818070
:104D3000401E32D0401E00F0CB80C01E00F0DA8052
:104D4000801E2AD0C01E28D0FCE06869421C6A611F
:104D50000A680A6052F8043B0A603354FCE095F894
:104D60003A000122FFF789FFC5E90001002904D5B7
:104D70006869411C69612D220DE0288F810704D5E7
:104D80006869411C69612B2205E0C00721D568696B
:104D9000411C6961202232541BE095F83A00002240
:104DA000FFF76BFFC5E9000195F83800010710D542
:104DB000D5E90023002B08BF002A0AD044F02000C8
:104DC000782806D1686930213154401C421C6A6140
:104DD0003454214668693044E86087E00868C01DA3
:104DE00020F007000860D0E9002308300860C5E91A
:104DF0000023D5E90001C80F04D06869411C69612E
:104E00002D220DE0288F810704D56869411C696156
:104E10002B2205E0C00704D56869411C6961202286
:104E2000325468693044E8602146284600F0C4F9ED
:104E300092E005F13A02507820B14FF0FF340FF6BE
:104E4000202062E01078622808D0682824D06A28E0
:104E500012D06C282ED071280ED02BE00A680A6080
:104E600052F8040B0A6020B94FF0FF340FF6082007
:104E70004BE0E96A01706FE00A680A6052F8040BBF
:104E80000A6020B94FF0FF340FF6EC103DE0EA6AFB
:104E9000D317C0E900235FE00A680A6052F8040BE8
:104EA0000A6020B94FF0FF340FF6CC102DE0E96A0C
:104EB000018051E00A680A6052F8040B0A6020B9C8
:104EC0004FF0FF340FF6B0101FE0E96A016043E0D5
:104ED0000A680A6052F8040B0A60002120F0000200
:104EE00021F0FF33C5E90023EE607821284600F069
:104EF000BBF831E00868086050F8044B0860EC60CB
:104F00003CB94FF0FF340FF6881000F0E5FC201A92
:104F100070BD2E6B002E04D5204600F0FDFC04462B
:104F200008E032460021204600F012FD002814BFA0
:104F3000041B3446AC610FE06869411C696125229D
:104F4000325409E06969481C6861252272542100C5
:104F500002D0431C6B613454002070BD2DE9FC412C
:104F60000F46064690467A6B7869396ABC6A121A0F
:104F7000B869521A796A121AF869521A121A97F80D
:104F80003800141B41070FD42020002C8DF800009E
:104F90000ADD254601236A463946304600F048FCC2
:104FA00000285DD16D1EF5D17B69424639463046F9
:104FB00000F03EFC002853D130208DF800003D6AFF
:104FC000002D09DD01236A463946304600F030FCE9
:104FD000002845D16D1EF5D1BB69FA6839463046C7
:104FE00000F026FC00283BD130208DF800007D6ABF
:104FF000002D08DD01236A463946304600F018FCD2
:1050000070BB6D1EF6D1F868B969FB694218394664
:10501000304600F00DFC18BB30208DF80000BD6A52
:10502000002D08DD01236A463946304600F000FCB9
:10503000B0B96D1EF6D197F8380041070DD5202084
:10504000002C8DF8000008DD01236A463946304601
:1050500000F0EEFB20B9641EF6D10020BDE8F68119
:105060004FF0FF30BDE8F6812DE9FC4307466F297C
:105070003E6908BF082405D041F02000782814BFFD
:105080000A2410243C25D7E90023642918BF692984
:105090009046994605D1002B03D5D8F1000869EB5D
:1050A0004909B9F1000F08BFB8F1000F1FD1386BE3
:1050B000E8B9082C4CD197F83800010748D53020C2
:1050C0003B2586F83B0043E000280ED597F83800D2
:1050D00000F01400102808D17B6B7969386A5B1ADC
:1050E0001B1A9A1A002AC8BF3A62BDE8F3838DF8EA
:1050F0000010404649462246E31700F055FC303286
:10510000D0B26D1E3A28019504DB9DF80000A0F195
:1051100051018A187255404649462246E31700F06D
:1051200043FC80465FEA010908BFB8F1000F03D0D5
:10513000F86871198842DCD3082C09D197F8380037
:10514000010705D5705D302802D06D1E30207055E6
:10515000C5F13C02BA617119F960386B8242B3DA69
:10516000821A3A624FF6EF70398F01403987BDE8F5
:10517000F3832DE9D04306460F4614464FF000084E
:10518000DFF8109412E0E00707D542464B46304660
:10519000394600F08DFC06460F46404649464246D9
:1051A0004B4600F085FC641080468946002CEAD10D
:1051B00030463946BDE8D0832DE9F84F05468A468A
:1051C0004AF020048EB0D5E90089612C02AE09D0E6
:1051D000286B002848BF062003D408BF672C01D1E4
:1051E00001202863D5E900014A005215521C0DD157
:1051F0000B030BD0AAF1610103201A29A86102D286
:105200000FF2A86110E00FF2A8610DE04A005215FC
:10521000521C0ED10B030CD1AAF1610103201A29F3
:10522000A86116D30FF29061E868032200F012FD26
:10523000C0E1CDE90C01DDE90C2323F00043B3F517
:10524000801F0DD20027002B08BF002A019703D131
:1052500011E00FF26061E7E701AA00F007FD0AE044
:10526000CD48CE4900EB1350DDE90C2301900B40F3
:10527000CB4910461943C5E90001612C0DD1E868FE
:1052800030210170821CBAF1610FEA600CBF7821F5
:10529000582141706869801C6861D5E90001CDE939
:1052A0000C01DDE90C2333F0004104BF002800238A
:1052B00000F04881612C40F0A080286B494600280E
:1052C0004CBF4FF0210B00F1010B404600220023A0
:1052D000DDE90C8900F002FD01990BF1010738BFEF
:1052E00089F00049091F002F01918DF808200DF168
:1052F000090040F33581A9490091064640464946D8
:105300000022002300F002FD80F029814800400DBA
:1053100000F11C0211D0002A0FDD40F2FF739A4207
:1053200005DBA04909F000400143002011E0009B8B
:10533000194041EA025140460BE028F0000039F0E4
:10534000004108BF00280FBF49461C22494600F013
:10535000F5FC8046894600F08FFDFF1F002F0446B4
:1053600009DD00F0A7FD02460B464046494600F025
:10537000B3FD80468946F01D072104E004F00F02CA
:1053800000F8012D2411002C01DD491EF6D5491E1F
:105390005CBF002200F8012DF9D5DCE000201946A1
:1053A00002AA0A4400E05B1E12F80149491E844229
:1053B000F9D00F2804D10DF10900425C521C42546F
:1053C000002904D50198001D02AE5B1C0190581EF7
:1053D0000CD43118AAF13A040A783032D7B23A2FF5
:1053E000A8BFA218401E01F80129F5D5286B002896
:1053F00040F1A780591E2963A3E001996A4A47F248
:105400009750414391FBF2F2019229F00046D2F10C
:10541000070204DD40463146FFF7ABFE0AE0524288
:1054200000206249FFF7A5FE02460B464046314682
:1054300000F0C4FD8046662C286B06BF019F0A372A
:1054400006273F18142FC8BF142730208DF80800F6
:1054500089460DF1090000E03046002F34DD064694
:105460004046494600F0CEFE01460A4606F10803D2
:1054700004200A26B2FBF6F606EB860EA2EB4E02DD
:10548000303203F8012C0A22B6FBF2F202EB820E54
:10549000A6EB4E063036401E03F8026DE9D1083FF8
:1054A000002F03F10806D7DD084600F0BFFE0246D4
:1054B0000B464046494600F00FFD00223C4B00F0F1
:1054C000F7FA80468946CBE70DF10901401A0DF144
:1054D000090604E00199491E401E0191761C3178AD
:1054E0003029F7D0662C02D10199491C03E0652CC4
:1054F0000CBF012100212B6BCB189842B8BF431E73
:10550000002B1ED4834204DAF05C3528A8BF392072
:1055100000DA30201946721E02EB010800E05B1E23
:1055200018F80199491E8145F9D0392802D1705CDB
:10553000401C7054002904D50198401C16465B1C81
:105540000190019800B200901BB2324651462846A5
:1055500000F034F82EE0C61D002F3FF7CFAE3046E6
:105560000DF10901401A03465845C8BF5B46002BA0
:105570000DF109063FF53AAF8342BFF60FAF0DF1CB
:105580000900C15C07297FF709AF0F2007E700007A
:10559000CBCCCC0C0000244002FCFFFFFFFF0F80AF
:1055A0000000E03F0000F07FA08601000000F03F17
:1055B00084D797410FB0BDE8F08F00002DE9F84780
:1055C00083B006468A461746984600F03DFEB8F17D
:1055D000000F406A356B90F8009002DC4FF0010834
:1055E000B6A74AF02000BDF93040662808BF641C09
:1055F00015D0672840F0848014F1040FC0F2868033
:10560000AC4280F2838096F83800641C010702D413
:10561000A845B8BF454620B22D1A48BF00250FFA4D
:1056200084FAF068B169BAF1000F25DC4A1C302316
:105630004354002D03DC96F83800010703D5F068C9
:1056400000F80290521C15EB0A0FB8BF6C4220B252
:10565000441941424445B8BFA046B26171620FFA95
:1056600088F5F561F068B3692A463946184400F0B8
:10567000F1FA641BB462C4E022B29045084417DA20
:105680004246394600F0E6FAB0694044B061AAEB00
:105690000801002D716203DC96F838100A0705D561
:1056A000F16801F80090F069401CF061B562A8E073
:1056B000394600F0CFFAB069002D5044A8EB040839
:1056C00003DC96F838100A0703D5F16801F800905A
:1056D000401CB0610FFA88F08542F368B069B8BF2A
:1056E000A8460FFA88F207EB0A01184400F0B2FA54
:1056F000B1690FFA88F00144B161281A706280E044
:10570000BAF1610F14D14FF0700A16E0A84504DA1F
:1057100096F838100A0758BF45466D1E48BF002549
:10572000BAF1670F14BF4FF0450A4FF0650A04E065
:10573000BAF1410F08BF4FF0500AB169F368481C35
:10574000B061002D17F8012B5A5403DC96F838107D
:105750000A071BD5F168431CB36101F80090002DC6
:1057600014DDA8F101080FFA88F039468542F76880
:10577000B8BFA8460FFA88F2F81800F06BFAB069C3
:105780000FFA88F108446D1AB0617562F068B1696A
:105790000844002C80F800A003D42B224270811C06
:1057A00003E02D2141706442811C00206A460AE01A
:1057B00023460A2493FBF4F404EB8405A3EB45038E
:1057C00002F8013B401C24B2002CF1DC012806DC6D
:1057D0004AF02002652A04BF302201F8012B48B9A3
:1057E000302001F8010B07E0401E1DF80030303377
:1057F00001F8013B0028F7DCF268B0691044091A8F
:10580000F16196F8380000F0140010280DD172698B
:10581000B169706A8A18F1698218B06A8A188218A8
:10582000706B8242BCBF821A326204B0BDE8F0875E
:10583000F8B505460E4617461C46002074B117F809
:10584000011BB068A847B06030B1F06A401CF0623C
:105850000020641EF3D1F2BD4FF0FF30F2BD000016
:105860007072696E74665F733A20256E2064697386
:10587000616C6C6F776564007072696E74663A2053
:1058800062616420256E20617267756D656E7400BB
:105890007072696E74665F733A206261642025736A
:1058A00020617267756D656E740000006E616E0038
:1058B0004E414E00696E6600494E460030000000C1
:1058C000C9B202788A421AB11CBF10F8012FF9E759
:1058D00018BF00207047000080B500B906A0054938
:1058E0000B681BB122220021984701E0FBF7BCFEA8
:1058F000222002BDA8030020636F6E737472616979
:105900006E742068616E646C65723A206261642016
:105910006D6573736167650000F10103810704D051
:1059200010F8011B820781B1FAD10268A2F101319E
:10593000914311F0803104BF50F8042FF6E709BA03
:10594000B1FA81F100EBD100401CC01A7047000091
:10595000C9B2830706D0521E22D310F8013B9942E8
:10596000F7D11FE0083A13D302F1040241EA012102
:1059700041EA014150F8043B121F21BF4B40A3F103
:10598000013C2CEA030C1CF0803FF3D0C9B2001F8D
:10599000083210F8013B521E28BF91EA030FF8D8D5
:1059A00018BF0120401E7047D3BBD9B1B2F5803F6C
:1059B0005BD2022A1ED98C46B1FBF2F102FB11C365
:1059C0001B0443EA1043B3FBF2FC02FB1C3380B21E
:1059D00040EA0343B3FBF2F002FB103240EA0C4012
:1059E00000237047022A05D98446B0FBF2F002FB7F
:1059F00010C270474AB105D100F0010249085FEAC0
:105A00003000704700220023704700F021BC0B00DB
:105A10000200002100207047F7D3002200237047C6
:105A2000904271EB030CF2D370B5B1FA81F4B3FA82
:105A300083F52C1BA340C4F1200532FA05F633434D
:105A4000A2405FF00046E64002E05B085FEA3202F7
:105A5000841A71EB030524BF204629467641F4D30E
:105A600002000B003000002170BD70B5B1FA81F466
:105A7000B2FA82F5C4F120046419B4F12006DAD335
:105A8000B2405FF00044F440002502E052085FEAB3
:105A90003303C61A71EB020E24BF304671466441CF
:105AA0006D41F3D302000B002000290070BD0000FF
:105AB000B0B581EA030C0CF0004C40F2FF7515EA1A
:105AC00011541DBF15EA1357AC42AF4239E0E41937
:105AD00023EA455343F48013C90241F0004141EAEF
